:020000040800F2
:1000000000000220915C0008515900085359000873
:1000100055590008575900085959000800000000B8
:10002000000000000000000000000000813C00080B
:100030005B59000800000000113D0008753D0008F4
:10004000E15C0008E15C0008E15C0008E15C00089C
:10005000E15C0008E15C0008E15C0008E15C00088C
:10006000E15C0008E15C0008E15C0008E15C00087C
:10007000E15C0008E15C0008E15C0008E15C00086C
:10008000E15C0008E15C0008E15C0008E15C00085C
:10009000E15C0008E15C0008E15C0008E15C00084C
:1000A000E15C0008E15C0008E15C0008E15C00083C
:1000B000E15C00085D590008E15C0008E15C0008B3
:1000C000E15C0008E15C0008E15C0008E15C00081C
:1000D000E15C0008E15C0008E15C0008E15C00080C
:1000E000E15C0008E15C0008E15C0008E15C0008FC
:1000F000E15C0008E15C0008E15C0008E15C0008EC
:10010000E15C0008E15C000869590008E15C000856
:10011000E15C0008E15C0008E15C0008E15C0008CB
:10012000E15C0008E15C0008E15C0008E15C0008BB
:10013000E15C0008E15C0008E15C0008E15C0008AB
:10014000E15C0008E15C0008E15C0008755900080A
:10015000E15C0008E15C0008E15C0008E15C00088B
:10016000E15C0008E15C0008E15C0008E15C00087B
:10017000E15C0008E15C0008E15C000800000000B0
:08018000E15C0008E15C0008ED
:1001900010B5054C237833B9044B13B10448AFF3C1
:1001A00000800123237010BD940000200000000097
:1001B000B465000808B5034B1BB103490348AFF30E
:1001C000008008BD0000000098000020B465000811
:1001D000034613F8012B002AFBD1181A0138704787
:1001E00001F0FF01102A2BDB10F0070F08D010F8E8
:1001F000013B013A8B422DD010F0070F42B3F6D1EC
:10020000F0B441EA012141EA014122F007047FF004
:1002100000070023F0E80256083C85EA010586EA5B
:10022000010685FA47F5A3FA87F586FA47F6A5FA97
:1002300087F68EB9EED1F0BC01F0FF0102F00702A3
:1002400032B110F8013B013A83EA010313B1F8D14E
:100250000020704701387047002D06BF354603382F
:10026000073815F0010F07D1013015F4807F02BF68
:10027000013015F4C03F0130F0BC0138704700BFB9
:1002800053B94AB9002908BF00281CBF4FF0FF31FD
:100290004FF0FF3000F07AB9ADF1080C6DE904CEF3
:1002A00000F006F8DDF804E0DDE9022304B0704751
:1002B0002DE9F0478C460D460446089E002B51D18F
:1002C0008A4217466DD9B2FA82FEBEF1000F0BD0FA
:1002D000CEF1200C01FA0EF520FA0CFC02FA0EF712
:1002E0004CEA050C00FA0EF44FEA174A250CBCFB49
:1002F000FAF81FFA87F90AFB18CC45EA0C4508FB07
:1003000009F3AB420AD9ED1908F1FF3280F02381DD
:10031000AB4240F22081A8F102083D44ED1AA4B29C
:10032000B5FBFAF00AFB105544EA054400FB09F955
:10033000A14509D9E41900F1FF3380F00A81A145F4
:1003400040F2078102383C44A4EB090440EA08402B
:100350000021002E61D024FA0EF400233460736073
:10036000BDE8F0878B4207D9002E54D0002186E8E3
:1003700021000846BDE8F087B3FA83F1002940F078
:100380008E80AB4202D3824200F2FA80841A65EB7F
:1003900003050120AC46002E3FD086E81010BDE8D2
:1003A000F08712B90127B7FBF2F7B7FA87FEBEF163
:1003B000000F34D1EB1B3A0C1FFA87FC0121B3FB71
:1003C000F2F8250C02FB183345EA03450CFB08F351
:1003D000AB4207D9ED1908F1FF3002D2AB4200F26F
:1003E000D1808046ED1AA3B2B5FBF2F002FB1055A6
:1003F00043EA05440CFB00FCA44507D9E41900F1CD
:10040000FF3302D2A44500F2B8801846A4EB0C04D6
:1004100040EA08409DE731463046BDE8F087CEF11E
:10042000200405FA0EF307FA0EF720FA04F83A0C46
:1004300025FA04F448EA0308B4FBF2F14FEA184540
:1004400002FB11441FFA87FC45EA044501FB0CF34B
:10045000AB4200FA0EF409D9ED1901F1FF3080F03A
:100460008A80AB4240F2878002393D44EB1A1FFA82
:1004700088F5B3FBF2F002FB103345EA034500FBBD
:100480000CF3AB4207D9ED1900F1FF386FD2AB4244
:100490006DD902383D44EB1A40EA01418FE7C1F1C2
:1004A000200722FA07F88B4005FA01F448EA030313
:1004B00020FA07FE4FEA134CFD404EEA040EB5FB4E
:1004C000FCF94FEA1E440CFB19551FFA83F844EA65
:1004D000054509FB08F4AC4202FA01F200FA01FA00
:1004E00008D9ED1809F1FF3043D2AC4241D9A9F146
:1004F00002091D442D1B1FFA8EFEB5FBFCF00CFB00
:1005000010554EEA054400FB08F8A04507D9E41849
:1005100000F1FF3529D2A04527D902381C4440EA12
:100520000940A4EB0804A0FB02894C45C6464D4691
:1005300015D312D056B1BAEB0E0364EB050404FADE
:1005400007F7CB401F43CC40376074600021BDE803
:10055000F0871846F8E69046E0E6C245EAD2B8EBE6
:10056000020E69EB03050138E4E72846D7E7404669
:1005700091E78146BEE7014678E702383C4445E70B
:10058000084608E7A8F102083D442BE7704700BF82
:1005900008B50B4B1A6842F400721A601A6842F4EC
:1005A00080621A601A6842F480721A60032000F0B8
:1005B0002FF8002005F08EF905F060F8002008BD46
:1005C000003C0240034A044B11681B780B44136043
:1005D000704700BF641C002000000020014B186819
:1005E000704700BF641C002038B50446FFF7F6FFD3
:1005F000631C1CBF054B1B78054618BFE418FFF7AA
:10060000EDFF401B8442FAD838BD00BF0000002037
:10061000074AD36823F4E0631B041B0C43F0BF6359
:10062000000243F4003300F4E0600343D3607047FA
:1006300000ED00E0174B30B5DC68C4F30224C4F1D0
:100640000703251D042B28BF0423062D4FF00105A9
:1006500005FA03F303F1FF338CBF033C0024194078
:10066000A14005FA04F4013C2240002842EA0102BC
:100670004FEA0212ADBF00F1604000F00F00064BE0
:1006800000F56140B5BFD2B2D2B21A5480F800234F
:1006900030BD00BF00ED00E014ED00E0002808DBF5
:1006A0004209012300F01F0003FA00F0014B43F858
:1006B0002200704700E100E02DE9F04F85B00B68A3
:1006C000DFF8AC81684ADFF8AC9101930023012484
:1006D000019D9C402540AC4240F0B0804C6824F025
:1006E000100C0CF1FF36012E4FEA430E12D887682A
:1006F000032606FA0EF627EA0607CE6806FA0EF675
:100700003E4386604768C4F3001627EA05079E400B
:100710003E4346600326C76806FA0EF6F64307EA2C
:10072000060A8F6807FA0EF747EA0A07BCF1020FBC
:10073000C76016D14FEAD30A00EB8A0A03F0070B11
:10074000DAF820704FEA8B0B4FF00F0C0CFA0BFC11
:1007500027EA0C0C0F6907FA0BF747EA0C07CAF8EF
:10076000207007683E4004F0030707FA0EFE4EEAC9
:1007700006060660E60061D54FF0000BCDF80CB020
:10078000D8F84470394E47F48047C8F84470D8F818
:10079000447007F480470397039F23F0030707F192
:1007A000804707F59C3703F0030CD7F808A04FEA01
:1007B0008C0C4FF00F0E0EFA0CFEB0422AEA0E0E11
:1007C00043D006F58066B04241D006F58066B0425F
:1007D0003FD006F58066B0423DD006F58066B04257
:1007E0003BD048453BD006F50066B04239D006F50F
:1007F0008066B04214BF0826072606FA0CF646EAC1
:100800000E06BE601668EF4314F4803F0CBF3E40F6
:100810002E431660566814F4003F0CBF3E402E4332
:100820005660966814F4801F0CBF3E402E439660BD
:10083000D668A40254BF3E402E43D6600133102B2D
:100840007FF445AF05B0BDE8F08F5E46D5E70126E1
:10085000D3E70226D1E70326CFE70426CDE7052616
:10086000CBE70626C9E700BF003C0140000002407C
:1008700000380240001402400369194214BF0120ED
:10088000002070470AB1816170470904FBE72DE938
:10089000FF47044690F8B8029DF830709DF834E0A8
:1008A000BDF838C0012828D0282000FB01400125D0
:1008B000002612F0800F84F8B85202F07F0908BFBA
:1008C000354680F83D6080F8383080F8391080F87F
:1008D0003FE080F83A9080F83B5080F83C70A0F8F8
:1008E00040C0CDF808C08DE88040206801F0A4FF2A
:1008F00084F8B86204B0BDE8F0870220FAE790F807
:10090000B832012B10B5044609D0012380F8B83263
:10091000006802F01BF8002084F8B80210BD022025
:1009200010BD2DE9F04107468AB0002841D090F86B
:10093000B932046803F0FF021BB980F8B82205F051
:1009400079F8032387F8B932E36B3C4613F48073DC
:1009500054F8100B08BF3B6101F02AFE0FCC6D4626
:100960000FC50FCC0FC594E8030085E8030007F11D
:1009700004083E4698E80E00386801F0D3FD56F8AA
:10098000100B012101F01AFE0FCE6D460FC50FCEE0
:100990000FC594E8030085E8030098E80E00386866
:1009A00001F0CAFE012387F8B93200200AB0BDE881
:1009B000F0810120FAE70000F0B5282404FB0104CF
:1009C0009DF81470069EBDF81C5084F83B2084F8F6
:1009D0003F306FB90327022B84F842702BD0BB4203
:1009E00029D0012B31D1282303FB010300222AE067
:1009F0004FF0020E84F842E0032B26D801A454F8ED
:100A000023F000BF150A0008E7090008370A0008AC
:100A1000370A0008012F18D1BAB925B9282303FBDA
:100A2000010383F85170282303FB010393F851203D
:100A30004AB1022207E0282303FB0103D2B993F84D
:100A40005140002CF5D183F84220282404FB0103F7
:100A5000002283F8391019465E649D6483F85C2097
:100A6000DA6483F85D203831027C0068BDE8F0402C
:100A700001F0D0BF93F85020DAE700BF2DE9F04F26
:100A8000066887B00446304601F0F8FD012840F0C2
:100A9000B480206801F0EEFD002800F0AE802068F0
:100AA00001F0E8FD870248BF2368206844BF4FF487
:100AB00000125A6101F0DEFDC50248BF23682068BC
:100AC00044BF4FF480125A6101F0D4FD400148BF89
:100AD0002368206844BF4FF080625A6101F0CAFD6C
:100AE000810748BF2368206844BF02225A6101F091
:100AF000C1FD820010D5D6F8403423F02E03C6F88D
:100B00004034204604F0E6FF0121206801F0BAFDE0
:100B100023684FF000525A61206801F0ABFDC30119
:100B200042D52568D5F840340493D5F84034059370
:100B3000059B23F02E030593049B9F070DD5049B73
:100B4000D80706D5AB6923F00053AB61204604F00B
:100B5000BDFF059B43F002030593049B190719D5BC
:100B6000059B43F008030593049B5A0750D5A169E0
:100B7000022945D1049B206803F4C023B3F5802FDC
:100B800018BF012101F07EFD204604F0ABFF204696
:100B900004F09CFF049B9B0642BF059B43F020038F
:100BA0000593059BC5F84034206801F063FD0707F5
:100BB00005D5204604F086FF236808225A61206884
:100BC00001F058FD850112D5206801F0BAFE4FF002
:100BD000000A019006F5A06828274FF00209D346C5
:100BE000A3689A4523D323684FF000725A612068A6
:100BF00001F040FDC30600F1208207B0BDE8F08F90
:100C0000E368012B04BF4EF66022C5F80424BBE75D
:100C1000204604F06BFFD5F84034226823F02E0301
:100C2000C5F84034936943F000539361B2E7019AE9
:100C30000AF00F0322FA03F3D80740F18A80D8F8AC
:100C40000030206813F4004F5FFA8AF500F0048149
:100C50006A0100F5A063D618B168490713D50421CD
:100C6000B160F16841F00201F160B168890542D5D7
:100C7000F368206843F00203F360294601F066FE42
:100C80004FF40073C7E0B168890602D52021B16036
:100C9000EBE7B168090715D5F168039341F002014C
:100CA000F16007FB05414FF0050E81F85DE0102172
:100CB000B1600821B1602946029201F047FE029A14
:100CC000039BD2E7B1684905CFD5F168039341F0A2
:100CD0000201F1602946029201F038FE1021B16054
:100CE00007FB0541082081F85D004FF48061B16089
:100CF000039B029AB9E7B168C8073DD5216949B19C
:100D000007FB054E3069DEF84810C0F31200091ADF
:100D1000CEF84C1007FB054E01208EF85D00CEF892
:100D200058B0B0609EF83F1011F0FD0F16D1F36877
:100D3000206843F00203F360294601F007FE102308
:100D4000B36007FB054595F8503083F0010385F843
:100D500050300AF1010A08F1200841E70329F0D1D7
:100D6000D15841F00051D1508EF85C00024629461E
:100D7000204604F0B3FEE4E7B168890736D5F16890
:100D800007FB054021F00201F16090F85D10012998
:100D90000CD180F85C1007FB0543C6F8089093F867
:100DA0005C202946204604F099FED2E70529F0D0C0
:100DB000062901D0082914D107FB0541886D0130AF
:100DC0000328886583BF0420C1F858B081F85C000F
:100DD00081F85C90D15821F0804141F00041D15020
:100DE000D9E70329D7D180F85C90F3E7B16811F017
:100DF000800112D0F368206843F00203F36007FB20
:100E0000054329469A6D01329A65062283F85D20D2
:100E100001F09CFD8023B3609BE7B368DA0698D5A8
:100E200007FB054292F83F30032B0AD19165F36826
:100E3000206843F00203F360294601F087FD102388
:100E4000E9E713F0FD03FAD193652369002BF6D18E
:100E5000032382F85D30EAE7690100F5A0628E188D
:100E6000B36813F0040E06D00423B360F36843F0B4
:100E70000203F3606DE7B36813F0200314D020235E
:100E8000B36007FB054393F83D20012A7FF461AF6F
:100E900083F83DE083F85C90F36843F00203F3606D
:100EA000294601F053FD54E7D6F808E01EF0400F44
:100EB00011D007FB0542042182F85D10012182F860
:100EC0003D109365F36843F00203F360294601F097
:100ED0003DFD40239FE7B36813F4007E05D0F3681F
:100EE00043F00203F3602946C8E6B368DB0711D577
:100EF000F26807FB054342F00202C3F858E02946B6
:100F0000F260029301F022FD029B0122B26083F89D
:100F10005D201EE7B3681B070ED50823B360F36896
:100F200043F00203F360294601F010FD07FB05457D
:100F3000052385F85D300CE7B368DB0615D507FBA4
:100F40000543032283F85D2093F83D20C3F858B091
:100F50002AB993F83C2012B9012283F83D20F368A6
:100F600043F00203F360294667E7B3681B060CD51C
:100F7000F36843F00203F360294607FB054501F0DF
:100F8000E5FC062385F85D3044E7B3685B050FD5C3
:100F9000F36843F00203F360294601F0D7FC102305
:100FA000B3604FF48063B36007FB05450823C0E7D7
:100FB000B36898077FF5CDAEF36807FB054023F0D3
:100FC0000203F36090F85D30012B0ED180F85C30A5
:100FD00090F83F30023B012B3FF6DDAE90F85130E8
:100FE00083F0010380F85130D5E6032B02D180F85D
:100FF0005C90D0E6042BFAD0052B02D180F85C304F
:10100000C9E6062B02D0082B7FF4C5AE07FB0540CE
:10101000836D0133032B836584BF042380F85C3028
:101020008B5888BFC0F858B023F0804343F000438A
:1010300098BF80F85C908B50ADE62668B36923F0CA
:101040001003B361356AC5F34342022A29D1C5F3BF
:101050000A18B8F1000F24D005F00F05282707FB68
:101060000547796CE9B14246304601F0F5FA7B6CF0
:1010700043447B64FB6C4344FB6406F5A0666B0150
:101080009A1911690A4A0A405AB19A5922F08042C3
:1010900042F000429A5197F8503083F0010387F8EC
:1010A00050302268936943F010039361A5E500BFB7
:1010B0000000F81F38B590F8B832012B04460DD067
:1010C000012580F8B852006801F06CFA29462068C2
:1010D00001F012FB002084F8B80238BD022038BDB0
:1010E00090F8B832012B10B5044609D0012380F8DE
:1010F000B832006801F040FD002084F8B80210BD4D
:10110000022010BD006801F0D9BA282303FB0101B9
:1011100091F85C007047282303FB0101C86C7047FD
:10112000006801F084BB006801F076BB70B504462E
:1011300008B9012070BD90F83D3003F0FF021BB9E3
:1011400080F83C2004F0BCFA242384F83D30236866
:101150001A6822F001021A601A6842F400421A600A
:101160001A6822F400421A6000F034FD6568414BB1
:101170009D424DD8404B9842DBD922683F49536885
:10118000B0FBF1F123F03F030B435360136A23F0EC
:101190003F03013119431162D169364B21F44F41AC
:1011A0009D4221F0FF0100F1FF3048D86D00B0FBF7
:1011B000F5F00130C0F30B03042B38BF04230B43BD
:1011C000D3611168206AE36921F0C00103430B4336
:1011D00013609168E068236921F40341034321F01F
:1011E000FF010B439360D168A069636921F0FF019F
:1011F00003430B43D360136843F0010313600020E3
:101200002023206484F83D30206384F83E0070BDC4
:101210001B4B98428DD92268184E5368B0FBF6F6E6
:1012200023F03F0333435360136A4FF496717143C5
:1012300023F03F034FF47A76B1FBF6F1A9E7A368F8
:1012400053B905EB4503B0FBF3F0431CC3F30B03A9
:101250006BB143F40043B2E719236B43B0FBF3F0E7
:10126000431CC3F30B0313B143F44043A7E701232B
:10127000A5E700BFA08601007F841E0040420F004A
:10128000FF083D00F8B50446002841D090F84130F1
:1012900003F0FF022BB9424B80F84020436304F077
:1012A00047FA0221226884F84110D36923F47B6352
:1012B00023F00F03D361636911628B4231D0E3687D
:1012C000002BA3680CBF102520250120202B98BFE0
:1012D0006D0000F055FD23696169B3F5007F1BD1F6
:1012E000E3680A22B3B1AB00B0FBF3F353430A2225
:1012F000B3FBF1F30533B3FBF2F303F00102120287
:101300005B08991EFD290ED9636C43F010036364DA
:101310000120F8BDEB00E7E70A23B0FBF5F04343FB
:10132000E5E70022EDE71343226921686668E56876
:10133000A069DFF87CE013430B62A368CF6946EA3B
:10134000030242F400622A43024307EA0E073A43CB
:10135000CA61226A012A1DD1124A6263124F134ADE
:10136000B94218BF4FF040222B43D16901EA0E0168
:10137000D16102211162D76943F40063034336F45B
:10138000007143EA07030CBF4FF4807100219BB248
:101390000B43D36100200123606484F84130F8BD21
:1013A000BB130008B91400080038004000340040A6
:1013B00040F0FFFF7047704770471FB503689A6899
:1013C000019290F84120042A044636D1019AD107AF
:1013D00017D55A68520614D5C26AD96822F8021B7A
:1013E000C262428E013A92B24286428E92B242B9B3
:1013F0005A6822F060025A60012380F84130FFF7FA
:10140000DAFF019B590618D523685A68920614D54D
:101410005A6822F060025A6000220292DA68029250
:101420009B680293029B012384F84130636C43F074
:10143000020363642046FFF7BFFF94F84130032B9B
:1014400036D1019B9B0719D522685368180615D51C
:10145000636A33F8021BD1606362638D013B9BB208
:101460006385638D9BB24BB9536823F0A00353602F
:10147000012384F841302046FFF79CFF019B1907A8
:1014800016D523685A68920612D55A6822F0A0022F
:101490005A60002203929B680393039B012384F804
:1014A0004130636C43F0040363642046FFF784FF1C
:1014B00004B010BD7047000010B502688B499368F6
:1014C00086B0044600938A4B8A4218BF4FF04023EF
:1014D000996801915168029159680391416831F40A
:1014E000007140F09080009B99071AD5029B1B0663
:1014F00017D5436A991C1B884162D360438D013B19
:101500009BB24385438D9BB25BB9536823F0A00324
:101510005360438E9BB223B9012380F84130FFF71B
:10152000C9FF019BD80722D5039B59061FD5E26A44
:1015300020686E49931CE3626D4B884218BF4FF0E0
:101540004023D9681180628E013A92B26286628E1F
:1015500092B262B95A6822F060025A60638D9BB2FF
:101560002BB9012384F841302046FFF7A3FF019BEC
:101570005A0622D5039B9B061FD523685B495C4A0C
:101580008B4218BF4FF040222046516821F0600185
:1015900051605A6822F0A0025A6000220492DA6870
:1015A00004929B680493049B012384F84130636C8C
:1015B00043F002036364FFF7FFFE009B180720D58A
:1015C000029B99061DD5236848495A6822F0A0025B
:1015D0005A60474A8B4218BF4FF04022516821F0B1
:1015E00060015160002205929B680593059B0123D1
:1015F00084F84130636C43F0040363642046FFF7D2
:10160000DBFE06B010BD019A92071AD5039A1106A7
:1016100017D5426A911C12884162DA60428D013A04
:1016200092B24285428D92B25AB95A6822F0A00213
:101630005A60438E9BB223B9012380F84130FFF7F3
:1016400039FF009BDA071CD5029B5B0619D5E36ABC
:101650009A1CE2622268D1681980638E013B9BB2BA
:101660006386638E9BB263B9536823F06003536053
:10167000638D9BB22BB9012384F841302046FFF7DC
:1016800019FF009B58061BD5029B990618D52268A6
:101690001649536823F060035360154B8A4218BF04
:1016A0004FF0402320465A6822F0A0025A600123DE
:1016B00084F84130636C43F002036364FFF77CFEFF
:1016C000019B1A079DD5039B9B069AD52268074963
:1016D000074B8A4218BF4FF04023596821F0A00100
:1016E0005960536823F06003536080E7003800407E
:1016F000003400402DE9F341044608B901203FE0E1
:101700000368DD0710D4236898075AD423681A07A2
:1017100000F19C8023685B0700F1BA80A069002873
:1017200040F01B8100202BE0A44B9A6802F00C02D1
:10173000042A07D09A6802F00C02082A0AD15B68D2
:10174000590207D59D4B1B689A03DCD56368002BB3
:10175000D9D1D3E76368994DB3F5803F13D12B6896
:1017600043F480332B60FEF739FF944D06462B6817
:101770009B03C8D4FEF732FF801B6428F7D90320EF
:1017800002B0BDE8F081B3F5A02F04D12B6843F47B
:1017900080232B60E3E72A6822F480322A602A68DB
:1017A00022F480222A60002BDDD1FEF717FF0646C7
:1017B0002B689F03A7D5FEF711FF801B6428F7D97C
:1017C000DDE77E4B9A6812F00C0F07D09A6802F0A2
:1017D0000C02082A11D15B685E020ED4774B1A689E
:1017E000950702D5E268012A88D11A68216922F09A
:1017F000F80242EAC1021A6088E7E268704BB2B1AF
:1018000001221A60FEF7EAFE6C4D06462B68980727
:1018100007D52B68226923F0F80343EAC2032B6043
:1018200074E7FEF7DBFE801B0228EFD9A7E71A60FA
:10183000FEF7D4FE614D06462B6899077FF566AF2B
:10184000FEF7CCFE801B0228F6D998E762695D4B53
:101850007AB101221A60FEF7C1FE584D06466B6F41
:101860009F073FF557AFFEF7B9FE801B0228F6D958
:1018700085E71A60FEF7B2FE504D06466B6F98077B
:101880007FF548AFFEF7AAFE801B0228F6D976E75F
:101890004A4B1A6C12F0805228D101921A6C42F015
:1018A00080521A641B6C03F080530193019B012644
:1018B000454D2B68D9051BD5A368404D012B27D179
:1018C0002B6F43F001032B67FEF788FE3B4D074665
:1018D00041F288382B6F9B0739D5002E3FF41EAF9D
:1018E000364A136C23F08053136417E70026DFE7B2
:1018F0002B6843F480732B60FEF770FE07462B685D
:10190000DA05D9D4FEF76AFEC01B0228F7D936E7FC
:10191000052B04D12B6F43F004032B67D0E72A6F0C
:1019200022F001022A672A6F22F004022A67002BA4
:10193000CAD1FEF753FE41F2883807462B6F98074D
:10194000CBD5FEF74BFEC01B4045F7D917E7FEF796
:1019500045FEC01B4045BDD911E7184DAB6803F0EB
:101960000C03082B47D0194E00230228336035D1D1
:10197000FEF734FE07462B68990129D4226AE369F1
:101980001343626A43EA8213E26A43EA0263A26A89
:101990000A4C5208013A43EA02436B600123336068
:1019A000FEF71CFE054623689A013FF5BBAEFEF725
:1019B00015FE401B0228F6D9E1E600BF00380240C0
:1019C00000004742800E47420070004060004742DE
:1019D000FEF704FEC01B0228CDD9D0E6FEF7FEFDBF
:1019E00004462B689B017FF59DAEFEF7F7FD001BBB
:1019F0000228F6D9C3E601283FF4C2AEA868E3691D
:101A000000F480029A427FF479AE226A00F03F032C
:101A100093427FF473AE626A47F6C0730340934209
:101A20007FF46CAEA26A00F4403393427FF466AE5A
:101A3000E36A00F07060C01A18BF0120A0E600BF82
:101A4000134908B58B6803F00C03042B03D0082B53
:101A500003D0104808BD104808BD4A684B68496863
:101A600013F4800314BF0C480A48C1F3881118BF4F
:101A7000002302F03F02A1FB0001FEF701FC044B32
:101A80005B68C3F3014301335B00B0FBF3F008BDB7
:101A9000003802400024F40000127A002DE9F041E1
:101AA0000D46044610B90120BDE8F081444B1A6888
:101AB00002F00F028A4229D321688F072ED4C8076B
:101AC00041D43F4B1A6802F00F02954267D3226857
:101AD00051076DD4130707D53A4A2169936823F457
:101AE000604343EAC1039360FFF7AAFF354B364AD0
:101AF0009B68C3F30313D35CD840344B1860344B5A
:101B0000186803F0E7FE0020BDE8F081CAB21A7041
:101B10001B6803F00F039942C5D1CDE7294B11F0A3
:101B2000040F1EBF9A6842F4E0529A600E0742BF4B
:101B30009A6842F460429A609A68A06822F0F002C3
:101B400002439A60BBE762681E4B012A1DD11B68E5
:101B500013F4003FA7D01B4EB36823F003031343D5
:101B6000B360FEF73BFD41F288380746B368626810
:101B700003F00C03B3EB820FA3D0FEF72FFDC01BC5
:101B80004045F3D90320BDE8F081911E01291B686F
:101B900002D813F0007FDDE713F0020FDAE7EAB2B4
:101BA0001A701B6803F00F039D427FF47CAF8EE731
:101BB0000449E0688B6823F4E05303438B6089E7B2
:101BC000003C024000380240916600082C000020D2
:101BD00004000020044B054A9B68C3F38223D35CB6
:101BE000034A1068D840704700380240A1660008D8
:101BF0002C000020044B054A9B68C3F34233D35C9E
:101C0000034A1068D840704700380240A1660008B7
:101C10002C0000200F2303600B4B9A6802F0030294
:101C200042609A6802F0F00282609A6802F4E05220
:101C3000C2609B68DB0803F4E0530361034B1B683D
:101C400003F00F030B60704700380240003C024075
:101C5000036813F0050FF7B5054605D1286810F0A5
:101C6000020028D103B0F0BD414C424E0023236056
:101C7000FEF7B4FC074633681B0115D4AB686A68ED
:101C80001B0743EA8213C6F8843001232360FEF762
:101C9000A5FC384C064623681801DFD4FEF79EFCED
:101CA000801B0228F7D904E0FEF798FCC01B02282D
:101CB000E1D90320D6E7002301932E4B2E4C1A6C5A
:101CC00042F080521A641B6C03F080530193019B15
:101CD000236843F480732360FEF780FC0646236884
:101CE000D9051BD5234C236F13F440731CD1EB682B
:101CF00003F44072B2F5407F1E4A34D1916823F05C
:101D0000704021F4F81120F4407001439160116F8C
:101D1000C3F30B030B4313670020A3E7FEF75EFC3E
:101D2000801B0228DBD9C4E7EA6802F440729342C0
:101D3000DDD0236F114A0121116023F4407300218B
:101D400011602367236FDA07D1D5FEF747FC41F214
:101D500088370646236F9B07C9D4FEF73FFC801BDC
:101D6000B842F7D9A5E7916821F4F811CEE700BF92
:101D7000680047420038024000700040400E474271
:101D8000012820D1114B9A6812F4000204D0012AD4
:101D90000F4818BF002070475A680C495868530212
:101DA000D1F884204CBF0B4B0B4B00F03F00B3FB32
:101DB000F0F3D1F88400C2F388125343C0F30270E9
:101DC000B3FBF0F070470020704700BF00380240BE
:101DD0000080BB0000127A000024F40010B5044615
:101DE000002836D00023836290F8513003F0FF02C0
:101DF0001BB980F8502003F0E5FC2168A068A269B7
:101E0000022384F851300B6823F040030B606368B1
:101E10000343E06803432069034360690343E069C7
:101E20000343206A0343A06A034302F400700343A0
:101E30000B60120C636A02F004021A434A60CB6919
:101E400023F40063CB6100200123606584F85130E6
:101E500010BD012010BD022380F83D3003689A6850
:101E600002F00702062A1EBF1A6842F001021A6039
:101E7000012380F83D30002070470368DA6842F0A3
:101E80000102DA609A6802F00702062A1EBF1A6889
:101E900042F001021A600020704770477047704797
:101EA000704703681A69910710B504460ED5DA68C1
:101EB00092070BD56FF002021A619B6901229B0702
:101EC000027777D0FFF7EAFF0023237723681A69A8
:101ED000500710D5DA6851070DD56FF004021A616A
:101EE0009B69022213F4407F2277204668D0FFF7D7
:101EF000D5FF0023237723681A6912070FD5DA6804
:101F000010070CD56FF008021A61DB6904229907EB
:101F1000227720465AD0FFF7C1FF0023237723689A
:101F20001A69D20610D5DA68D0060DD56FF0100206
:101F30001A61DB69082213F4407F227720464BD0D8
:101F4000FFF7ACFF0023237723681A69D10708D570
:101F5000DA68D20705D56FF001021A61204603F056
:101F600081FB23681A69100608D5DA68110605D5C1
:101F70006FF080021A61204600F097F923681A6911
:101F8000520608D5DA68500605D56FF040021A618E
:101F90002046FFF785FF23681A69910622D5DA6883
:101FA00092061FD56FF0200220461A61BDE810404E
:101FB00000F07AB9FFF771FF2046FFF770FF83E763
:101FC000FFF76BFF2046FFF76AFF92E7FFF765FF19
:101FD0002046FFF764FFA0E7FFF75FFF2046FFF70B
:101FE0005EFFAFE710BD0000304A0368904212D098
:101FF000B0F1804F0FD0A2F57C4290420BD002F599
:102000008062904207D002F58062904203D002F5D0
:102010007842904219D14A6823F070031343234A4F
:10202000904229D0B0F1804F26D0A2F57C42904258
:1020300022D002F5806290421ED002F5806290426A
:102040001AD002F57842904216D0194A904213D025
:1020500002F5806290420FD002F5806290420BD070
:10206000A2F59832904207D002F58062904203D0E8
:1020700002F58062904203D1CA6823F4407313438F
:102080004A6923F08003134303608B68C3620B68C3
:102090008362064B984203D003F58063984201D1D6
:1020A0000B69036301234361704700BF00000140D7
:1020B0000040014010B50446A0B190F83D3003F057
:1020C000FF021BB980F83C2003F0B0FB022384F828
:1020D0003D302068211DFFF787FF012384F83D3044
:1020E000002010BD012010BD10B584680A4324F4FF
:1020F0007F4442EA03232343836010BD90F83C30C1
:10210000012B70B504464FF0020019D084F83D0051
:102110002068012384F83C30836823F47F4323F054
:10212000770383600B68402B65D015D8102B0CD03B
:1021300007D853B10123002084F83D3084F83C00D7
:1021400070BD202B01D0302BF4D1826843F00703FF
:1021500022F0700213431AE0602B34D019D8502BB0
:10216000E8D14A68CE68016A056A25F00105056272
:10217000836921F00A0123F0F00343EA06130A43BE
:1021800083610262836823F0700343F05703836026
:10219000D0E7702B0CD0B3F5005FCBD1CB684A6889
:1021A0008968FFF7A1FF2268936843F4804308E041
:1021B000CB684A688968FFF797FF2268936843F005
:1021C00077039360B6E74D68CE68016A21F010018D
:1021D00001628269036A22F4704223F0A00343EA99
:1021E000051342EA063282610362836823F07003BA
:1021F00043F06703CBE74A68CE68016A056A25F0B9
:1022000001050562836921F00A0123F0F00343EA26
:1022100006130A4383610262836823F0700343F06C
:102220004703B4E790F83C30012B30B54FF0020380
:1022300035D080F83D3003680D685C6824F0700488
:1022400001222C4380F83C209A685C60154CA34224
:102250001AD0B3F1804F17D0A4F57C44A34213D019
:1022600004F58064A3420FD004F58064A3420BD030
:1022700004F57844A34207D004F57054A34203D078
:10228000A4F59434A34204D1496822F080020A43A1
:102290009A60012380F83D30002380F83C301846D6
:1022A00030BD00BF000001407047704738B503687B
:1022B000C1681A69044622F440520A431A6125692A
:1022C000A268D968C0692A43656921F416412A4386
:1022D00021F00C0102430A43DA605A69A16922F431
:1022E00040720A43B0F5004F5A61254A29D1934202
:1022F00003D002F58062934220D1FFF77BFC626835
:10230000256892184FF000034FF019015B41A0FBC4
:102310000101FDF7B5FF6421B0FBF1F401FB1403EB
:10232000DB003233B3FBF1F303F007025B0002EB97
:10233000041203F4F8731344AB6038BDFFF74AFC92
:10234000DDE7934202D00F4A934216D1FFF752FCC9
:102350006368256819219A00A0FB01019B0FFDF716
:102360008FFF6422B0FBF2F102FB11031B01323339
:10237000B3FBF2F303EB0113DEE7FFF72BFCE7E718
:102380000010014000140140F8B504460E461746FF
:102390001D4621680B6836EA030301D10020F8BD11
:1023A0006B1CF7D095B92368DA6822F4D072DA6032
:1023B0005A6922F001025A61202384F8393084F8E6
:1023C0003A30002384F838300320F8BDFEF706F9D0
:1023D000C01B8542DDD2E6E710B5044640B390F855
:1023E000393003F0FF021BB980F8382003F03CFAC3
:1023F0002268242384F83930D36823F40053D3604F
:102400002046FFF753FF23681A6922F490421A61AD
:102410005A6922F02A025A61DA6842F40052DA60FC
:1024200000202023E06384F8393084F83A3010BD6E
:10243000012010BD2DE9F8431F4690F83930202BBC
:1024400004460D46904651D100294CD0002A4AD06E
:1024500090F83830012B49D0012380F838304FF004
:1024600000092123C0F83C9080F83930FEF7B6F817
:10247000A4F824800646A4F8268084F83890E38CDB
:102480009BB25BB93B46324640212046FFF77CFFBA
:10249000A0B9202384F83930BDE8F883E38C013BF0
:1024A0009BB2E384A368B3F5805F32463B464FF0AE
:1024B000800120460ED1FFF767FF10B10320BDE871
:1024C000F8832B882268C3F308035360236943B958
:1024D0000235D4E7FFF758FF0028EFD123682A78A8
:1024E0005A600135CBE70120BDE8F8830220BDE842
:1024F000F88300000A4B013B01D1032070470269B9
:10250000002AF8DA0369064A43F001030361013A3D
:10251000F3D0036913F00103F9D11846704700BFE7
:10252000410D030084B038B505AD85E80E000A9B67
:10253000012B044625D1836B23F480338363C36866
:1025400023F4840323F04003C360C36823F44013DF
:10255000C360119B012B02BFC36843F48013C360A7
:10256000FFF7C8FF089B012B07D1A36843F00603C0
:10257000A360A36843F02003A360BDE8384004B023
:102580007047C36843F04003C360FFF7B3FF0E9B7F
:1025900023B9A36B43F48033A363E3E7A36B23F472
:1025A0008033F9E7836843F00103836000207047BC
:1025B000836823F0010383600020704708B5C36877
:1025C000012923F0C043C36008D1C36843F000531E
:1025D000C3603220FEF708F8002008BD19B9C368AF
:1025E00043F08043F4E7012008BD0000890141F079
:1025F0002001064A0161013A05D0036913F0200366
:10260000F9D1184670470320704700BF410D030001
:102610001023064A0361013A05D0036913F0100341
:10262000F9D1184670470320704700BF410D0300E1
:1026300010B59DF808404CB9033300EB023023F08D
:10264000030300F580500B44994201D1002010BDD6
:1026500051F8042B0260F7E7033222F003020A4428
:1026600000F58050914201D108467047036841F857
:10267000043BF7E74269806910407047406900F009
:1026800001007047D0F8003423F0030310B5C0F800
:102690000034D0F8004401F003032343012900F57E
:1026A0008062C0F8003404D14BF6803353600020C0
:1026B00010BD0229FBD141F27073F7E737B5002551
:1026C0000195D0F840340193019B23F02E03019330
:1026D000019B43F480730446C0F840346420FDF746
:1026E00083FF019B23F48073C4F840340A20FDF774
:1026F0007BFF284603B030BD82B000230193D0F8A1
:1027000040340193019B23F02E030193019BDA04D3
:1027100006D4012902BF019B43F48053C0F8403422
:10272000019BDB0405D521B9019B23F48053C0F83C
:102730004034002002B0704784B038B5044605A884
:1027400080E80E000023C4F8003EA36B43F400139E
:10275000A363A36B23F40023A363A36B23F480235D
:10276000A363E36BDA053FD5079B032BD4F8003452
:102770003CD143F00403C4F8003410212046FFF795
:1027800035FF2046FFF744FF0023069904F5A062B9
:102790004FF0FF301D468B422BD101212046FFF721
:1027A000ABFFC820FDF720FF0023A3614FF0FF33EC
:1027B0006361E36BDB0521D54FF40073636203F1C2
:1027C0008073A362114BC4F80031089B1BB9A36945
:1027D00043F01003A361A2690D4B1343A361BDE84D
:1027E0003840002004B07047D4F8003423F00403CC
:1027F000C1E790600133D5602032CCE7802363626B
:1028000003F5C003A362034BDDE700BF0003E00054
:10281000080020A3E000400082B000230193D0F81C
:10282000403401930198C0F3414002B0704700F575
:102830008060806880B270472DE9F04100EB41175D
:1028400007F5A0649DF81C6005464FF0FF30A060BE
:102850004FFA82F805F5806C01F00F0E032E6CD84C
:10286000DFE806F00261024C40F29D41B8F1000F32
:10287000E16003DAE16841F4807105E0E96BC905C4
:1028800042D5E16841F06001E1600020DCF81840C9
:10289000012101FA0EF12143CCF81810A969B8F111
:1028A000000F41F00071A961B4BF4FF4004400244F
:1028B000BDF820509DF818109B0503F0FE53C5F39A
:1028C0000A05D20202F4F0422B431343B20402F48D
:1028D0004022022943EA02030CBF4FF400310021D9
:1028E00023430B43032EC7F8003528D1D7F8003512
:1028F00043F00053C7F80035BDE8F08140F29D6118
:10290000B8F1000FE160B5DBDCF81800012101FA35
:102910000EF10143CCF81810A969002041F00071B4
:10292000A9610446C4E740F22521B8F1000FE16037
:10293000EADAE16841F4C071A6E70120A6E7BDE844
:10294000F08100F58060406980B2704700EB411172
:1029500001F5A062D1F8003513F4802FD1F80035CD
:1029600043F08043C1F800351ED1C36A13F47F0FD2
:10297000D1F8003537D123F00043C1F80035D1F844
:10298000003543F00043C1F80035D1F8003523F499
:102990000043C1F8003540F2E933013B02D0116831
:1029A0000029FADB00207047D0F8103413F47F0FB1
:1029B000D1F8003517D123F00043C1F80035D1F824
:1029C000003543F00043C1F80035D1F8003523F459
:1029D0000043C1F8003540F2E933013BE2D0116811
:1029E0000029FADBDEE743F00043C1F80035D9E700
:1029F00000EB4111064AC1F81025D1F8003523F04B
:102A0000804343F00043C1F800350020704700BF09
:102A1000000008802DE9F341C36BDB051646044630
:102A20004A7817D50D79ADB94EB94B79012B11D133
:102A30001146FFF7DDFF002002B0BDE8F081012E56
:102A400008D100EB4213D3F80C0520F06000C3F866
:102A50000C054D710869002866D00B8901381844AF
:102A6000B0FBF3F080B2B0F5807F03D91B020B619D
:102A70004FF48070CF7817B10B8943430B6191F805
:102A80000AE00B694FEA4E7EC3F312080EF0C04E07
:102A90004EEA080EDFF8DC8004EB421508EAC0407D
:102AA0004EEA0000C5F8100516B1C868C5F814054F
:102AB00004F5806EDEF80800D5F800C52CF0005C47
:102AC000C5F800C5C043D5F800C5400700F0005068
:102AD00040EA0C00C5F800052548D5F800C5C0F847
:102AE00000C0D0F800C02CF0804CC0F800C0D0F876
:102AF00000C0DFB14CF4004CC0F800C0D0F800C0FA
:102B00004CF0004CC0F800C00068C5F80005002E6D
:102B100091D1002F8FD1002B8DD0C879032813D8E5
:102B2000DFE800F0071A071A0120A3E72CF4004C95
:102B3000E2E7E06ADD1CC5F38F0580B2854203D968
:102B4000A06940F02000A061002000909BB2C968FD
:102B50002046FFF76DFD6EE7DEF81000DD1CC5F3C3
:102B60008F0580B28542EFD9A06940F08060EAE726
:102B7000B00000200000F81F836823F0010310B5A7
:102B8000102104468360FFF731FD2046FFF740FD2A
:102B900004F5A06304F5E0601A46116821F0802175
:102BA00041F0804142F8201B9042F6D10020196884
:102BB00021F4004141F0404119600130B0F57A7FC5
:102BC00002D819680029F8DB20339A42EFD14FF080
:102BD000FF33C4F814346361A36843F00103A360B6
:102BE000002010BD0020704738B5D0F87833DC697C
:102BF0002178054639B100F0D6FE2178284600F04C
:102C0000EEFE00232370217B41B1284600F0CBFE6D
:102C1000217B284600F0E3FE00232373617B41B152
:102C2000284600F0C0FE617B284600F0D8FE002355
:102C30006373D5F87833D86928B103F085F8D5F8EF
:102C400078330022DA61002038BDF0B5022285B069
:102C500001231146054600F0E7F9FF28064602D198
:102C6000022005B0F0BD0146284600F0D4F95020FE
:102C7000D5F8787303F060F81A2303FB0656F86161
:102C800096F84A331A0642BF4370B6F84C33438174
:102C900004464178284600F08BFE0146207060898A
:102CA00002900320019095F81D0395F81C3362787B
:102CB0000090284600F068FE00222178284602F0A5
:102CC000CCFF00231A460A21284600F0ADF9FF2860
:102CD000C6D01A2303FB005103FB005091F84A238E
:102CE00090F85233B1F84C1312F0800F0DBFA2735D
:102CF000E2736183218313F0800F08BFA373B0F8E0
:102D00005423A17B18BFE373284614BF6283228338
:102D100000F04EFEE17B6073284600F049FE207310
:102D2000208B0290022695F81D0395F81C33A27B98
:102D3000617B01960090284600F026FE608B029091
:102D400095F81D0395F81C33E27B217B01960090DA
:102D50000026284600F018FE3246617B84F84C605D
:102D6000284602F07AFF3246217B284602F075FFA2
:102D7000304676E738B5D0F87833D969A1230374A3
:102D8000212343740722002343828382C28240317D
:102D9000044600F06DFB054620B9D4F8C833022183
:102DA00020469847284638BD704770477047D0F88E
:102DB000783337B5DC6994F84C300546042B17D8C6
:102DC000DFE803F003061842BA00002003B030BD6C
:102DD0002123A16C03742023437407220023438220
:102DE0008382C28200F044FB50BB022384F84C3043
:102DF0000120EBE7A123037421234374072200235E
:102E000043828382C28204F1400100F031FBB8B9F1
:102E1000626CA36C84F84C0002F0FF115A6802F057
:102E2000FF129142E4D194F845105A799142DFD1D2
:102E3000226C1B689A42DBD12846FFF7B7FFD7E721
:102E40000128D5D00423D1E794F84D1001292BD0C7
:102E5000022938D0D5F87833DC6994F84E30032B4A
:102E600059D0042BC4D1217B284602F0E5FE01286D
:102E7000BED1217B284602F09BFEA36A984254D023
:102E8000628B904251D91B1AA362236A1844032310
:102E9000206284F84E300421C5F8D4130022D5F8FE
:102EA000CC0300F0F1FDA3E7606A228B637B009105
:102EB000904298BF82B2E169284600F03EFD0223AD
:102EC00084F84D30C6E7617B02F0B6FE01281FD1C1
:102ED000636A228B934283BF9B1A6362E369002378
:102EE0008ABF9B186362E361636A1BB1012384F8A4
:102EF0004D3004E084F84D302846FFF755FF04219B
:102F0000C5F8D4130022D5F8CC0300F0BDFDA1E72D
:102F100002289FD1EAE7237B628B216A284600F0D2
:102F200023FD042384F84E3062E7002384F84E30FA
:102F30002846FFF73AFFAEE7002100F0B8FC002872
:102F40007FF456AF84F84C0052E700F5607300F54B
:102F50006F72002143F8041B9342FBD100F58E727F
:102F600000F54771002302F8013B9142FBD1012299
:102F70004021037043708270C0F8BC3302768171C7
:102F8000437680F81C3380F81D2300207047000032
:102F900070B50C468CB0064658B3002380F8C023A9
:102FA000C0F87833C0F87C33FFF7CFFF0CB1C6F818
:102FB000C843114C94E80F0001AD85E80F000021D3
:102FC000284600F04DFD1034C6F8CC030FCC05ADFB
:102FD0000FC594E8070085E80700314605A800F012
:102FE0000FFDC6F8D003304602F084FD00200CB07F
:102FF00070BD0220FBE700BFCC65000849B1D0F8E6
:103000007C3333B90122C0F87C23C0F8741318460E
:1030100070470220704790F838338B4286BF80F8A3
:10302000201300200220704770B5002490F84363FD
:103030008E42E5B201D0FF290BD190F8446396424D
:1030400001D0FF2A05D190F845639E4207D0FF2B9F
:1030500005D00134022C00F11A00E7D1FF252846E3
:1030600070BD10B5044602F06BFD0121204602F050
:10307000E7FD002010BD30B587B002238DF8173072
:1030800090F81F33044633B9027822B10278032A3C
:103090001CBF0322027022780B2A20D8DFE812F02E
:1030A0000C002200270064011F005B00490104019D
:1030B0000F011C0128015B0194F81E337BB101252F
:1030C000C820257002F0D8FD204602F063FDC4F848
:1030D000D45300222946D4F8CC0300F0D5FC0020BC
:1030E00007B030BD012BFAD102232370F7E764202B
:1030F00002F0C2FD204602F03FFD0523237084F854
:103100001D030021204600F053FC80216071204601
:1031100000F04EFCA2790292002594F81D23207144
:10312000014694F81C33009201958022204600F05D
:103130002BFCA279029294F81D236179009294F8F5
:103140001C3301952A46204600F01EFC0121C4F8DC
:10315000D4132A46BFE76378072BC0D8DFE803F013
:10316000042A33454E5873830821204600F078FA2C
:1031700005460028B3D1012394F8292363702179EF
:1031800094F81C33A271029294F81D2300920195C9
:103190008022204600F0F8FBA279029294F81D23C9
:1031A000009294F81C33617901952A46204600F07C
:1031B000EBFB94E71221204600F052FA00288ED152
:1031C000022363708BE70121204600F046FB054691
:1031D000002884D1022002F04FFD032201236270F7
:1031E00084F81C332179A279CDE70921204600F02B
:1031F0007FFA00287FF473AF0423E2E7B4F83613B4
:10320000204600F075FA00287FF469AF0523D8E75F
:1032100094F8301379B104F58E72FF23204600F044
:10322000F5FA024600287FF45AAF062363700521A1
:10323000C4F8D4134FE70623637005230A46C4F885
:10324000D433194647E794F8311351B1FF2304F5FD
:103250008E72204600F0DAFA00287FF440AF072390
:10326000AFE70723E8E794F8321389B1FF2304F5A9
:103270008E72204600F0CAFA00287FF430AF002397
:1032800084F8203394F83333012B0BD108232CE737
:1032900005230A46C4F8D4331946D4F8CC0300F009
:1032A000F3FBECE7072320E7D4F8C833002B3FF407
:1032B00016AF0121204698470823237035E094F883
:1032C0003913204600F0D7FA08B9092323700121E9
:1032D000C4F8D4130022FEE694F83B339B0605D5D0
:1032E0000121204600F0D5FA0028F0D10A23EDE7AD
:1032F000D4F87C33CBB10023C4F87833D4F87433DA
:1033000094F843231979914208BFC4F87833D4F86C
:10331000783363B19B682046984740B906232370F1
:103320000321D4F8C833204698470521D0E70D2360
:10333000C3E7D4F878235AB11369204698478DF82B
:1033400017009DF81730002B7FF4C9AE0B23CCE695
:103350000D2323706BE7D4F87833002B3FF4BFAE16
:103360005B6920469847BAE62046FFF7EEFDD4F8A1
:103370007833002B3FF4B3AEDB6820469847002338
:10338000C4F87833ABE61FB504464FF0FF32D4F8EB
:10339000CC1301A800F0A0FB019B102BF5D1204617
:1033A000FFF769FEF1E7C0F8BC137047D0F8BC2303
:1033B0000132C0F8BC2302780B2A04D1D0F878334C
:1033C0000BB19B6918477047012380F81F33704782
:1033D000002380F81F337047037810B504468BB97B
:1033E000012380F81E33D0F8C8330BB1042198476D
:1033F0000121C4F8D4130022D4F8CC0300F044FB1C
:10340000002010BD90F81F33012B04BF022303706E
:10341000EEE710B5044602F0A1FB2179204600F04A
:10342000DEFA6179204600F0DAFA002384F81E33D0
:10343000D4F8C83313B1052120469847204602F03E
:103440007FFB032301212370C4F8D4130022D4F896
:10345000CC0300F019FB002010BD08B50121C0F815
:10346000D4130022D0F8CC0300F00EFB002008BDDE
:1034700037B58578012D044603D0022D0FD00120E9
:1034800057E0022381608281057683700321C4F8AE
:10349000D4130022D4F8CC0300F0F6FAEFE7037E51
:1034A000013B01210A2BEAD8DFE803F0060E252FA5
:1034B0004550707A96A1AB00427900F1100100F0FE
:1034C00004FA02232376DAE7417902F0B5FB0128FA
:1034D0000CD1E28A94F9103022B1002B44DA032394
:1034E0002376D3E7002B36DA0923F9E704286DD0D9
:1034F0000228C4D16AE0D0F8BC33C3818289037941
:10350000816800F00AFA0423DCE7017902F094FBF9
:103510000128E9D0052872D10321C4F8D413002270
:10352000D4F8CC0300F0B0FA0123A3700023237673
:10353000032003B030BD437982890091816800F097
:10354000D5F9D4F8BC33E3810623BBE7417902F017
:1035500073FB012801D10723C2E7052802D10C2300
:103560002376D9E7022801D10523B9E7042886D1BB
:103570000B2303212376C4F8D4130022D4F8CC0300
:1035800000F082FA0123A3700220D2E7002203791F
:10359000114600F0C2F9D4F8BC33E381082391E767
:1035A000017902F049FB01280ED10D230321237676
:1035B000C4F8D4130022D4F8CC0300F065FA012338
:1035C0000020A3702076B4E7042801D10B2387E7FD
:1035D00005287FF454AF9FE70022437900911146FC
:1035E00000F084F9D4F8BC33E3810A236AE7417917
:1035F00002F022FB0128D8D002283FF475AF04283E
:1036000077E7437E0133DBB2022B437605D802F025
:10361000A5FA01232376A37031E7D0F8C833062139
:10362000984700236376ADE730B48478BDF808503E
:10363000012C10D161F07F04047402F47F44B4F5CE
:10364000407F42824FF006010CBF40F20942002247
:1036500041748282C5822A46194630BCFFF708BFF2
:1036600037B500F58E730D4600914FF4807200213E
:103670000446FFF7D9FFC8BB94F81C3184F8223305
:1036800094F81D3184F82333B4F81E31A4F82433A0
:1036900094F8203184F8263394F8213184F82733C4
:1036A00094F8223184F82833082D94F8233184F8D3
:1036B00029331BD9B4F82431A4F82A33B4F82631BD
:1036C000A4F82C33B4F82831A4F82E3394F82A3116
:1036D00084F8303394F82B3184F8313394F82C315A
:1036E00084F8323394F82D3184F8333303B030BD8D
:1036F0002DE9F74300F11C050E4600912B464FF4CF
:10370000007200210446FFF78FFF48BB237F84F837
:103710003433637F84F8353394F8203084F83833B9
:1037200094F8213084F8393394F8223084F83A330D
:1037300094F82330B4F81EE084F83B33092E94F853
:103740002430A4F836E384F83C3309D927462B46C5
:10375000064609224FF01A0C022E01D0964502D8D7
:1037600003B0BDE8F08319780B440A445978042962
:1037700092B2F1D1197887F83E13597887F83F1340
:10378000997887F84013D97887F84113197987F821
:103790004213597987F84313997987F84413D979F3
:1037A00087F84513197A87F846130CFB06F80021B1
:1037B00097F842538D4202D801361A37CCE7964526
:1037C000FAD91D782B442A445D78052D92B2EFD1A9
:1037D0004D1C08EBC501214493F8009081F84093FB
:1037E00093F8019081F8419393F8029081F8429305
:1037F00093F8039081F84393B3F80490A1F84493AD
:1038000093F8069081F84693E9B2D1E7F7B500F551
:103810008E7514461F46009341F440722B460021DA
:103820000646FFF701FF78B996F81D31032B0BD13F
:1038300096F81C31023BBB4228BF3B469BB2024676
:10384000934203D80023237003B0F0BDA9180232BD
:10385000897804F8011B92B2F2E78378012B06D134
:10386000002305220374427441828382C3820022B2
:103870001146FFF7FDBD8378012B06D100230922F5
:103880000374427441828382C38200221146FFF78F
:10389000EFBD8378012B06D1002303220374427409
:1038A00041828382C38200221146FFF7E1BD837803
:1038B000012B06D1022243740023027443828182C9
:1038C000C38200221146FFF7D3BD30B585B0002476
:1038D000154608230293019103940094234622463F
:1038E000294602F08FF9204605B030BD30B590F87A
:1038F0001D5385B0002D1C469DF82030029218BF44
:103900000023039301230093002301911A462146CB
:1039100002F078F9002005B030BD30B585B0002444
:103920001D460292012201910394009223462946EA
:1039300002F068F9204605B030BD30B590F81D534F
:1039400085B0002D1C469DF82030029218BF002340
:10395000039301230191009300220223214602F0E8
:1039600051F9002005B030BD30B585B01D460024AA
:10397000029201220191039400920223294602F04F
:1039800041F9204605B030BD1FB5BDF82040029476
:103990009DF81C4001949DF81840009402F00CF929
:1039A000002004B010BD08B502F01EF9002008BDCB
:1039B00030B5002300F5607454F8045B2D04DAB2CE
:1039C00007D4E03341F4004140F8231092B2D0B262
:1039D00030BD01330B2BEFD14FF6FF72F7E70A2909
:1039E0009FBF00EB8100D0F88033C3F30E03C0F813
:1039F00080330020704708B501F090F8002008BD22
:103A000070B5054646692A694068B5F908400B4615
:103A100086B0296876B1AD6965B1842C14BF0334D2
:103A2000002402958DE8500001F014F805900598E7
:103A300006B070BD842C14BF0334002405AD92B2CF
:103A40008DE8300001F03DF80128F0D00020EFE7CC
:103A500008B5002808BF012001F0A8F9002008BD22
:103A600007B582684AB1C3683BB10021009103C821
:103A700000F014FC03B05DF804FB03C8002203B09F
:103A80005DF804EB00F053BC1FB5002401910394D2
:103A9000A24208BF0122EFF30583ABB1234603AA7C
:103AA00001A900F01FFD012802D0FF2004B010BDC5
:103AB000039B3BB1074B4FF080521A60BFF34F8F0F
:103AC000BFF36F8F0020F1E701A900F055FC01283A
:103AD000EBD1F7E704ED00E0F0B585B00026044631
:103AE000174608460391029601AD11B98023019350
:103AF00017E00096EFF30583D3B16A4602A900F000
:103B0000F7FD012804BF10230193009B18BF019605
:103B10003BB10D4B4FF080521A60BFF34F8FBFF394
:103B20006F8F95E8070084E80700204605B0F0BDD8
:103B300002A900F039FD012801D11023D7E7002F99
:103B40000CBF00234023D2E704ED00E000F108039E
:103B500043604FF0FF32C360036100238260036063
:103B6000704700230361704743684B609A688A601E
:103B70009A68516099600368086101330360704777
:103B80000A68531C30B50AD103695A684A609160CB
:103B90008B605960036808610133036030BD00F138
:103BA00008035C682568AA42EFD32346F9E7416819
:103BB000826803698A60826851605968884208BFD8
:103BC0005A60002202611A68013A1A601868704748
:103BD00082B0002301930D4B1B68013308D04FF0D6
:103BE000500383F31188BFF36F8FBFF34F8FFEE74E
:103BF0004FF0500383F31188BFF36F8FBFF34F8FE4
:103C0000019B002BFCD002B0704700BF28000020B1
:103C100008480068006880F308884FF0000080F3CF
:103C2000148862B661B6BFF34F8FBFF36F8F00DFAA
:103C300000BF000008ED00E0DFF80C00016841F46F
:103C4000700101607047000088ED00E04FF0807364
:103C500040F8043C074B40F80C3C21F001016FF0A8
:103C6000020340F8081C40F8202C40F8243C44385B
:103C7000704700BFD13B00080000000000000000BA
:103C8000074B19680868B0E8F04F80F30988BFF364
:103C90006F8F4FF0000080F311887047AFF3008002
:103CA000D41800204FF0500383F31188BFF36F8FB7
:103CB000BFF34F8F0A4A13680133012B13600DD1F4
:103CC000084B1B6813F0FF0F08D04FF0500383F32D
:103CD0001188BFF36F8FBFF34F8FFEE7704700BFB0
:103CE0002800002004ED00E0084A136843B94FF0B3
:103CF000500383F31188BFF36F8FBFF34F8FFEE73D
:103D0000013B13600BB983F3118870472800002032
:103D1000EFF30980BFF36F8F154B1A681EF0100F79
:103D200008BF20ED108A20E9F04F10602DE909004E
:103D30004FF0500080F31188BFF34F8FBFF36F8FA8
:103D400001F058F84FF0000080F3118809BC1968A1
:103D50000868B0E8F04F1EF0100F08BFB0EC108AF2
:103D600080F30988BFF36F8F704700BFAFF3008007
:103D7000D418002008B54FF0500383F31188BFF327
:103D80006F8FBFF34F8F00F007FF18B1034B4FF059
:103D900080521A60002383F3118808BD04ED00E00F
:103DA000054B064900221A600A60054A0549116060
:103DB00007221A60704700BF10E000E018E000E042
:103DC00014E000E03F900200394B3A4A13B51968FD
:103DD000914208D14FF0500383F31188BFF36F8FE6
:103DE000BFF34F8FFEE71A68334B9A4208D14FF06A
:103DF000500383F31188BFF36F8FBFF34F8FFEE73C
:103E00002E4B1A78D2B20192FF221A701B782C4ADC
:103E1000DBB28DF803309DF8033003F050031370CC
:103E2000284B07221A6000219DF80300000602F1CA
:103E3000FF340DD401B11A601A68032A11D04FF073
:103E4000500383F31188BFF36F8FBFF34F8FFEE7EB
:103E50009DF803205200D2B28DF8032001212246A2
:103E6000E2E7120202F4E0621A60019B134ADBB23D
:103E70001370154B1A6842F470021A601A6842F007
:103E800070421A60FFF78CFF104B00241C60FFF794
:103E9000D3FE0F4A136843F040431360FFF7B8FEA8
:103EA00000F0A8FFFFF794FE204602B010BD00BF4F
:103EB00000ED00E071C20F4170C20F4100E400E06C
:103EC000B4000020B800002020ED00E02800002011
:103ED00034EF00E0EFF305830F2B0ED9104A9B5C03
:103EE000104A12789A4208D94FF0500383F3118890
:103EF000BFF36F8FBFF34F8FFEE70B4B0B4A1B686F
:103F0000126803F4E063934208D94FF0500383F33F
:103F10001188BFF36F8FBFF34F8FFEE7704700BF6D
:103F2000F0E300E0B40000200CED00E0B800002059
:103F300010B50F4B1A68824218D35C681919884271
:103F400001BF4168184609195960446801198A423D
:103F500007D1084909688A421FBF516812680919C8
:103F600041609842026018BF186010BD1346E1E737
:103F7000CC180020BC0000202DE9F041044600F0E0
:103F800003FE3E493E4D0B680BBB3E4A56071FBF22
:103F9000D01D20F0070002F5C0531B1A14BF0246C3
:103FA0004FF4C0531344083B23F00703364E0B6015
:103FB00000207060326058601860981A1360334BAC
:103FC00050601860324B18604FF000432B602F6830
:103FD000274216D1002C41D004F1080358071CBF1A
:103FE00023F00703083363B1294A1668B3429046A9
:103FF00007D8254A15686868834204D809688D4245
:1040000007D100242AE02C68002CF7D02A46254648
:10401000F1E7296814681160C21A102A0FD9E8184C
:10402000410708D04FF0500383F31188BFF36F8F1F
:10403000BFF34F8FFEE742606B60FFF779FF1349D4
:104040006B680868F61A1F4386424FF00003C8F8F1
:10405000006038BF0E6008346F602B6000F02EFEE9
:10406000630708D04FF0500383F31188BFF36F8FBD
:10407000BFF34F8FFEE72046BDE8F081BC00002073
:10408000C0180020C0000020CC180020C818002054
:10409000C418002010B5044670B3184A50F8043C08
:1040A0001268134208D14FF0500383F31188BFF315
:1040B0006F8FBFF34F8FFEE750F8081C41B14FF0F0
:1040C000500383F31188BFF36F8FBFF34F8FFEE769
:1040D00023EA020340F8043C00F056FD084A54F875
:1040E000043C1168A4F108000B441360FFF720FFA3
:1040F000BDE8104000F0E2BD10BD00BFC0180020B8
:10410000C418002010B50446FFF7CCFDA46BFFF7E0
:10411000EBFDB4FA84F0400910BD70B51546026C91
:10412000866B044642B905689DB9406800F056FFA9
:1041300065600136A66370BD6DB9806801F00CFE44
:10414000A368226C13446268A360934201D323687E
:10415000A3600020EDE7C06801F0FEFD236CE2687B
:1041600021685B421A448A42E2603EBF62689B1843
:10417000E360022DEDD10EB1013EEAE73046D8E70B
:10418000034610B41A6C084662B1D9685C681144E1
:10419000A142D96024BF1968D960D9685DF8044B81
:1041A00001F0DABD5DF8044B704770B50446FFF7C7
:1041B00079FD94F8455004F124066DB2002D14DC0D
:1041C000FF2384F84530FFF78FFDFFF76BFD94F870
:1041D000445004F110066DB2002D12DCFF2384F868
:1041E0004430BDE87040FFF77FBD636A002BE7D025
:1041F000304600F053FE08B100F0DAFE013D6DB22A
:10420000DCE72369002BE9D0304600F047FE08B117
:1042100000F0CEFE013D6DB2DEE7000038B50D4680
:10422000044640B94FF0500383F31188BFF36F8FFA
:10423000BFF34F8FFEE7FFF735FD206CE36B22687D
:10424000A2604343D1181B1A13446160E36000214C
:10425000FF23A16384F8443084F8453095B923697D
:1042600063B104F1100000F019FE38B10A4B4FF0B1
:1042700080521A60BFF34F8FBFF36F8FFFF734FD8B
:10428000012038BD04F11000FFF760FC04F12400A8
:10429000FFF75CFCF2E700BF04ED00E013B51C463D
:1042A00040B94FF0500383F31188BFF36F8FBFF312
:1042B0004F8FFEE743B94FF0500383F31188BFF3EC
:1042C0006F8FBFF34F8FFEE74AB1D9B94FF050035C
:1042D00083F31188BFF36F8FBFF34F8FFEE789B170
:1042E0004FF0500383F31188BFF36F8FBFF34F8FED
:1042F000FEE74FF0500383F31188BFF36F8FBFF3D6
:104300004F8FFEE748230193019B482BF1D10123F6
:10431000002908BF2246E063216484F84630226009
:1043200019462046FFF77AFF204602B010BD70B54F
:104330000D46064640B94FF0500383F31188BFF392
:104340006F8FBFF34F8FFEE748434830FFF714FEEF
:10435000044650B1002380F8463045B92060E6633A
:10436000256401212046FFF759FF204670BD00F16A
:1043700048030360F3E700002DE9FF4789460192F7
:104380001F46044640B94FF0500383F31188BFF332
:104390006F8FBFF34F8FFEE7002940F08880036CDA
:1043A000002B00F084804FF0500383F31188BFF39B
:1043B0006F8FBFF34F8FFEE7019E002E00F08280CB
:1043C0004FF0500383F31188BFF36F8FBFF34F8F0C
:1043D000FEE7019D1DB9FFF787FC002058E016B9E4
:1043E00002A800F09DFDFFF77FFC00F0CDFBFFF77A
:1043F00059FC94F84430FF2B08BF84F8448094F8AB
:104400004530FF2B08BF84F84580FFF76DFC01A9FC
:1044100002A800F091FD002843D1FFF743FCA66BF2
:10442000E56BFFF761FCAE4235D1019904F1100054
:1044300000F01AFD2046FFF7B8FE00F03FFC38B947
:104440004FF08053CAF80030BFF34F8FBFF36F8F28
:104450000126FFF727FCA26BE36B9A4201D3022FE0
:10446000B7D13A4649462046FFF757FE636A1BB16B
:1044700004F1240000F012FD38B1194B4FF08052C6
:104480001A60BFF34F8FBFF36F8FFFF72DFC012032
:1044900004B0BDE8F0872046FFF787FE00F00EFC71
:1044A000D6E72046FFF781FE00F008FC95E7022FD3
:1044B00002D1E36B012B0AD100F080FD00283FF40C
:1044C0007BAF00264FF00008DFF814A0C1E74FF0E3
:1044D000500383F31188BFF36F8FBFF34F8FFEE755
:1044E00004ED00E02DE9F843884691461F46044656
:1044F00040B94FF0500383F31188BFF36F8FBFF3C0
:104500004F8FFEE709BB036CFBB14FF0500383F301
:104510001188BFF36F8FBFF34F8FFEE704F12400C4
:1045200000F0BCFC002834D0B9F1000F31D00120DC
:10453000C9F8000086F31188BDE8F88301356DB233
:1045400084F8455025E00020F4E7022F02D1E36B08
:10455000012B20D1FFF7BEFCEFF311864FF0500383
:1045600083F31188BFF36F8FBFF34F8FA26BE36BA1
:104570009A4201D3022FE6D194F845503A466DB2E3
:1045800041462046FFF7C9FD6B1CD7D1636A002B5B
:10459000C4D10120CEE74FF0500383F31188BFF35D
:1045A0006F8FBFF34F8FFEE72DE9F04385B088464C
:1045B0000192044640B94FF0500383F31188BFF3D2
:1045C0006F8FBFF34F8FFEE7002940F08680036CAA
:1045D000002B00F082804FF0500383F31188BFF36B
:1045E0006F8FBFF34F8FFEE7019E002E7AD04FF002
:1045F000500383F31188BFF36F8FBFF34F8FFEE734
:10460000019D1DB9FFF770FB002052E016B902A80A
:1046100000F086FCFFF768FB00F0B6FAFFF742FBFC
:1046200094F84430FF2B08BF84F8447094F8453068
:10463000FF2B08BF84F84570FFF756FB01A902A8BD
:1046400000F07AFC00283DD12046FFF75BFD98B3CF
:10465000019904F1240000F007FC2046FFF7A5FDB6
:1046600000F02CFB38B94FF08053C9F80030BFF38D
:104670004F8FBFF36F8F0126FFF714FBA56B002D43
:10468000BED041462046013DFFF77AFDA563236970
:1046900063B104F1100000F001FC38B1134B4FF08E
:1046A00080521A60BFF34F8FBFF36F8FFFF71CFB71
:1046B000012005B0BDE8F0832046FFF776FD00F04D
:1046C000FDFAD8E72046FFF770FD00F0F7FA204624
:1046D000FFF718FD0028CED096E700F06FFC002809
:1046E00082D000260027DFF80490C5E704ED00E043
:1046F0002DE9F84389469046054640B94FF05003EE
:1047000083F31188BFF36F8FBFF34F8FFEE771BB49
:10471000036C63B34FF0500383F31188BFF36F8FC3
:10472000BFF34F8FFEE795F84460494676B22846BE
:10473000FFF726FD013C731CAC6313D12B690BB949
:1047400001200BE005F1100000F0A8FB0028F7D0D5
:10475000B8F1000FF4D00120C8F8000087F31188E9
:10476000BDE8F883013676B285F84460E8E7FFF7E4
:10477000B1FBEFF311874FF0500383F31188BFF3C0
:104780006F8FBFF34F8FAC6B002CCCD12046E5E789
:104790002DE9F0410646FFF785FA2D4B2D4C1A689E
:1047A0002D4F01321A602568002D45D126601B6807
:1047B000012B1CD178191435FFF7C8F98C2DF9D1CC
:1047C000DFF8C080254D4046FFF7C0F92846FFF7C7
:1047D000BDF92348FFF7BAF92248FFF7B7F9224895
:1047E000FFF7B4F9214BC3F80080214B1D60214A2B
:1047F00021491368086801331360F26A012393406A
:10480000034314200B6000FB0270311DFFF7ACF96D
:10481000FFF76AFA194B1B6863B12368DA6AF36A17
:104820009A4207D2164B4FF080521A60BFF34F8F57
:10483000BFF36F8FBDE8F081104B1B68002BD6D102
:104840002368DA6AF36A9A4298BF2660CFE700BF0E
:104850006C190020D4180020E018002098190020BE
:10486000B4190020E0190020CC190020D81800202D
:10487000DC1800207C19002080190020C8190020B5
:1048800004ED00E084190020064A13681968064BFD
:1048900019B94FF0FF321A6070471268D268D268B7
:1048A0005268F8E7D8180020AC1900202DE9F0472D
:1048B0000A9CDDF82480266B02F18042013A06EB67
:1048C00082069A4681464B1E26F0070604F1340202
:1048D0000F31587802F8010B13F8010F08B18B4221
:1048E000F7D1089D062D28BF06250027E5626564DF
:1048F000201D84F84370A764FFF733F9C5F107055D
:1049000004F11800FFF72DF9E7642461A5616462E2
:1049100084F85070524649463046FFF797F92060B8
:10492000B8F1000F01D0C8F80040BDE8F08710B51D
:1049300090F8513004463BB9006BFFF7ABFB2046C3
:10494000BDE81040FFF7A6BB012BF9D0022B08D021
:104950004FF0500383F31188BFF36F8FBFF34F8F76
:10496000FEE710BD80B5DFF85C80124F124C134D8E
:10497000236863B9124B1B68012BF8D94FF08053A1
:10498000C8F80030BFF34F8FBFF36F8FEEE7FFF72C
:1049900089F9FB68DE68301DFFF709F92B68013BD8
:1049A0002B602368013B2360FFF79EF93046FFF739
:1049B000BEFFDDE7E0190020701900206C1900200F
:1049C000E018002004ED00E0F8B51B4B1B4E1D68FD
:1049D0000446306804300F46FFF7E9F8334640B923
:1049E0003168174EC96A32680120884022EA000205
:1049F0003260621C07D137B1196812480431BDE832
:104A0000F840FFF7B1B82C441A68A542546007D9A2
:104A10000D4A10681968BDE8F8400431FFF7B0B8D6
:104A20000A4A106819680431FFF7AAF8084B1A6897
:104A3000944238BF1C60F8BDF4190020D41800203F
:104A400080190020CC190020DC180020D818002084
:104A5000AC19002070B586B00B9D0C9C45B94FF089
:104A6000500383F31188BFF36F8FBFF34F8FFEE7BF
:104A700044B94FF0500383F31188BFF36F8FBFF336
:104A80004F8FFEE754260496049E542E08D04FF014
:104A9000500383F31188BFF36F8FBFF34F8FFEE78F
:104AA0002563022584F8515005AD01950A9D0294B5
:104AB0000095FFF7FBFE2046FFF76AFE059806B05B
:104AC00070BD2DE9F043074685B090008846164634
:104AD0009946FFF751FA0546E8B15420FFF74CFA22
:104AE0000446A8B1002380F851300D9B0563019363
:104AF0000C9B0290009332464B4641463846FFF7E6
:104B0000D5FE2046FFF744FE012005B0BDE8F08346
:104B10002846FFF7BFFA4FF0FF30F6E710B588B030
:104B2000002407AA06A905A80594069400F0A6FA91
:104B3000059B0293069B019300942346079A0D4917
:104B40000D48FFF787FF90B14FF0500383F31188B2
:104B5000BFF36F8FBFF34F8F084B4FF0FF321A60D8
:104B6000074B01221A60074B1C60FFF72DF908B0B4
:104B700010BD00BF4066000865490008AC19002060
:104B8000C8190020F4190020024A13680133136089
:104B9000704700BF781900202DE9F84F3C4B1B6887
:104BA000002B53D13B4B1C6801341C60BCB93A4B01
:104BB0001A68126842B14FF0500383F31188BFF3B3
:104BC0006F8FBFF34F8FFEE7344A19681068186083
:104BD0001160334A136801331360FFF755FE314DFE
:104BE000314F2B689C424FF0000B3ED3DFF8A8807A
:104BF000DFF8C490D8F80020126872BB4FF0FF3283
:104C00002A6032E006F1040A5046FEF7D0FFB16A8E
:104C100019B106F11800FEF7CAFFF06AD9F80030A2
:104C2000012202FA00F11943204BC9F800104FF09D
:104C3000140E51460EFB0030FEF796FF3868F16AFD
:104C4000C26A914228BF4FF0010BD3E7184A13689C
:104C5000013313604FF0000B11E0D8F80020D26848
:104C6000D66871688C42CDD229603A680F4BD16A00
:104C700014224A439A58022A28BF4FF0010B0D4ACA
:104C80001268002A18BF4FF0010B5846BDE8F88F94
:104C900078190020F4190020D8180020DC18002012
:104CA000B0190020AC190020D4180020E018002012
:104CB00074190020F8190020801900202DE9F8430C
:104CC000314C236843B94FF0500383F31188BFF38D
:104CD0006F8FBFF34F8FFEE7FEF7E4FF2368013BC2
:104CE000236024682CB10024FEF7FEFF2046BDE8B7
:104CF000F883264B1B68002BF5D0DFF8A890244FD3
:104D0000DFF8A480D9F80030E3B90CB1FFF7BCFD9F
:104D1000204D2C6844B1204E0127FFF73DFF00B124
:104D20003760013CF9D12C601B4B1B68002BDAD09B
:104D30001A4B4FF080521A60BFF34F8FBFF36F8F43
:104D40000124D1E7D9F80C30DC68261D04F11800E5
:104D5000FEF72DFF3046FEF72AFFE26A396801258B
:104D600005FA02F314200B4300FB028031463B603E
:104D7000FEF7FAFE0A4BE26A1B68DB6A9A4224BF1E
:104D8000054B1D60BEE700BF781900206C1900209C
:104D90008019002074190020F819002004ED00E0AB
:104DA000D4180020B4190020E018002008B540B93C
:104DB0000E4B4FF080521A60BFF34F8FBFF36F8FCF
:104DC00008BD0B4B196841B14FF0500383F31188B4
:104DD000BFF36F8FBFF34F8FFEE7FFF7D5FEFFF7EF
:104DE000F3FDFFF76BFF0028E2D008BD04ED00E003
:104DF00078190020174B1A68174B10B512B1012211
:104E00001A6010BD1A60154B1B68B3FA83F3DBB24E
:104E1000C3F11F03142212495A4388188C5844B90D
:104E20004FF0500383F31188BFF36F8FBFF34F8FA1
:104E3000FEE744680832646844600A44944204BF50
:104E400062684260142202FB03135B68DA68054B58
:104E5000D6E700BF78190020F8190020801900203B
:104E6000E0180020D418002010B50C4640B94FF0CF
:104E7000500383F31188BFF36F8FBFF34F8FFEE7AB
:104E8000054B19681831FEF77BFE20460121BDE86D
:104E90001040FFF799BD00BFD418002038B5C36893
:104EA000DC6844B94FF0500383F31188BFF36F8F70
:104EB000BFF34F8FFEE704F118052846FEF777FE93
:104EC000114B1B68E3B9251D2846FEF770FE0F49FC
:104ED000E26A08680123934003430B600C4B1420E3
:104EE000294600FB0230FEF73FFE0A4BE26A1B68D0
:104EF000DB6A9A4283BF084B01201860002038BD4E
:104F000029460648EFE700BF7819002080190020E5
:104F1000E0180020D4180020F8190020B41900204F
:104F2000034B1B680360034B1B684360704700BF63
:104F3000B0190020F419002070B50C46054640B9A0
:104F40004FF0500383F31188BFF36F8FBFF34F8F80
:104F5000FEE741B94FF0500383F31188BFF36F8F21
:104F6000BFF34F8FFEE7FEF79DFE0F4B69681A688F
:104F70002368581C0ED00D482E680068864201D068
:104F80008A420ED2521A9A4209D29B1A23602846AC
:104F9000FFF7C6FF0024FEF7A7FE204670BD0023E2
:104FA00023600124F7E700BFF4190020B0190020A6
:104FB000014B01221A607047F8190020054B1B684D
:104FC00033B1054B1B68002B0CBF0220002070473B
:104FD00001207047C819002078190020F8B5044650
:104FE00008B90020F8BD224B1B68984208D04FF04A
:104FF000500383F31188BFF36F8FBFF34F8FFEE72A
:10500000836C43B94FF0500383F31188BFF36F8F64
:10501000BFF34F8FFEE7C16A426C013B914283644C
:10502000DFD0002BDDD1051D2846FEF7C0FD114E57
:10503000114A50B9E76A1421794373582BB91368A0
:105040000120B84023EA00031360636CE362C3F1FC
:105050000701A1611168012404FA03F008431060FC
:10506000142000FB03602946FEF77EFD2046F8BDB4
:10507000D4180020E018002080190020034B0360A2
:10508000034B0B6080231360704700BFFC1B0020A4
:10509000FC19002008B500F0ADFC0A20FEF7D8FC92
:1050A000FBE730B587B004460D461422002101A865
:1050B00000F05DFE012301A9204601950293FBF754
:1050C000FBFA07B030BD30B587B004460D46142258
:1050D000002101A800F04BFE012301A92046019503
:1050E0000393FBF7E9FA07B030BD0000034B1B68E0
:1050F00000225A625A6A8242FCD37047041D002083
:1051000010B5104C4FF400712046FFF7CAFF002283
:105110004FF400712046FBF7B5FB44F25060FFF7F7
:10512000E5FF4FF4007120460122FBF7ABFB142092
:10513000FFF7DCFF20464FF40071BDE81040FFF799
:10514000C2BF00BF0008024038B52820FFF7CEFFDD
:105150004FF400710D48FBF78FFBA8B95020FFF703
:10516000C5FF4FF400710948FBF786FB002814BF08
:105170000124FF24054D4FF400712846FBF77CFB0A
:105180000028F8D1204638BD0024F3E7000802408B
:1051900070B5134E002407254FF400713046FBF71D
:1051A0006BFB0028F8D02820FFF7A0FF4FF4007118
:1051B0003046FBF761FB0123AB4068B924EA0304E6
:1051C0004FF400713046FBF757FB0028F8D115F17A
:1051D000FF35E1D2204670BD1C43E4B2F0E700BFCA
:1051E0000008024080B52748DFF8C480264E274CCF
:1051F000ADF57C7DFCF75EFF2248FCF72CFE2449D0
:1052000002A800F09DFE02A8FAF7E2FF4FF47A73BD
:1052100082B202A91F48FDF70DF9FFF771FFFFF7F2
:1052200093FF88F80000FFF7B3FF3070FFF7B0FF7F
:105230002070FFF7ADFF184F184D3870FFF7A8FF2B
:105240002870FFF7A5FF164B3A781880154B317878
:105250001A80154B207819802B780190009102A8B4
:10526000124900F049FE02A8FAF7B2FF4FF47A7330
:1052700082B202A90748FDF7DDF840F24C40FEF784
:10528000E7FBCAE7041D0020001D00204C1D002084
:10529000456600086C1C0020461D0020AA1D002049
:1052A000A81D0020441D0020021D00205766000894
:1052B000501C002070B5302298B00DEB0200002188
:1052C00000F055FD1422002107A800F050FD002138
:1052D000102203A800F04BFD0025214B01951A6C0C
:1052E00042F080521A641B6C03F080530193019BBF
:1052F0001C4B02951A6842F480421A601B6803F442
:1053000080430293029B4FF480330D934FF480034C
:105310001393082314934FF4A873022401261593C2
:105320000CA8072317930C9612941694FCF7E2F935
:105330000F2307934FF4A0530A9305214FF4805392
:1053400007A80B9308940995FCF7A8FBC02303A8B2
:10535000039604930594FCF77BFC18B070BD00BF66
:10536000003802400070004080B5ADF5026DFBF7DB
:105370000FF9FFF79FFF1422002114A8002400F06A
:10538000F6FCA14B00941A6BA048DFF8D48242F0DF
:1053900010021A631A6B02F010020092009A019434
:1053A0001A6B42F004021A631A6B02F004020192B3
:1053B000019A02941A6B42F080021A631A6B02F08F
:1053C00080020292029A03941A6B42F001021A635D
:1053D0001A6B02F001020392039A04941A6B42F0D2
:1053E00002021A631A6B02F002020492049A0594F4
:1053F0001A6B42F008021A631B6B03F00803059353
:1054000022460821059BFBF73DFA01221146804800
:10541000FBF738FA22464FF210017E48FBF732FACA
:1054200022464FF400717A48FBF72CFA0125082632
:1054300014A976481496159516941794FBF73CF921
:1054400040F2012314A97248149305271595169468
:105450001794FBF731F9149614A902266C48159697
:10546000189716941794FBF727F914A96A4814950E
:10547000CDF854801694FBF71FF9042314A967484C
:10548000149315941694FBF717F94FF4806314A93D
:10549000624814931596189716941794FBF70CF915
:1054A0004FF2100314A95B48149315952027169406
:1054B0001794FBF701F914A95648149715941694FC
:1054C000FBF7FAF814A951481496CDF854801694B5
:1054D000FBF7F2F814A94D481595149716941794F4
:1054E000FBF7EAF84E484F4A4F4B846080E80C00C7
:1054F0004FF480430361C46044618461C461046209
:10550000FBF714FE49484A4B84604FF4007580E86D
:105510002800484B05614361C4608461C461046232
:10552000FBF7B0FE4448454985614FF4827380E83B
:105530000A000A23C3628460C46004614461C461D8
:10554000046244628462FCF749FC1022214614A8DC
:1055500000F00DFC3A4D3B48AC60532385E8090050
:105560004FF6FF732846EB602C61AC610D940E94EE
:10557000FCF7A0FD4FF4805314A928461493FCF7C0
:10558000BDFD0DA928460D942F4D0E94FCF74AFE43
:105590002E4BAC604FF4E13685E8480028460C23DA
:1055A0006B61EC602C61AC61EC61FCF715FF284984
:1055B00014A800F0C5FC14A8FAF70AFE82B2284627
:1055C000244D4FF47A7314A9FCF734FF0FCD06AEC7
:1055D0000FC695E8070086E80700214606A8FEF7F3
:1055E0000FFA1D4B0C3518600FCD0DAE0FC695E8A8
:1055F000070086E8070021460DA8FEF701FA174BC1
:105600001860FEF7F8F9FEE700380240001002408B
:1056100000080240000C024000000240000402406A
:10562000AC1C002000540040A0860100AC1D0020EE
:10563000003C004000770100501D00200030014078
:10564000041D0020000C00406C1C0020004800409D
:105650006E660008F8650008681C0020481D0020E0
:10566000000012100268034B9A4201D1FAF7AABF58
:10567000704700BF000400407047000007B50F4BA3
:1056800000220092596C41F480415964596C01F434
:105690008041009100990192196C41F08051196488
:1056A0001B6C03F0805301930F216FF00100019BED
:1056B000FAF7C0FF03B05DF804FB00BF00380240FA
:1056C00030B5044689B01422002103A800F04FFB36
:1056D0002268144B9A4222D1134C1448002501959C
:1056E000236B43F002032363236B03F00203019354
:1056F000019B4FF41073039312230493012305932A
:1057000003A904230793FAF7D7FF0295236C43F408
:1057100000132364236C03F400130293029B09B06B
:1057200030BD00BF00540040003802400004024079
:1057300070B5044688B01422002103A800F017FBBE
:1057400022681D4B9A4235D103F5FE3300240094A4
:105750001A6C1A4842F400421A641A6C02F40042AD
:105760000092009A01941A6B42F001021A631A6BBC
:1057700002F001020192019A02941A6B42F00402B3
:105780001A631B6B03F004030293029B022610238F
:10579000062503A9039304960795FAF78DFF4FF4A6
:1057A000A45303A906480393049605940694079509
:1057B000FAF782FF08B070BD003C004000000240D4
:1057C0000008024010B5044688B01422002103A846
:1057D00000F0CDFA2268134B9A4220D103F58433AE
:1057E000002101915A6C104842F480525A645A6C5C
:1057F00002F480520192019A02911A6B42F0010266
:105800001A631B6B03F001030293029BE0230393D3
:105810000223049303A905230793FAF74DFF08B069
:1058200010BD00BF003001400000024007B50D4B25
:1058300002689A4213D103F50B3300220192196CCE
:1058400041F0080119641B6C03F008030193322036
:105850000521019BFAF7EEFE3220FAF71FFF03B095
:105860005DF804FB000C004010B5044688B014221B
:10587000002103A800F07BFA2268144B9A4223D13E
:1058800003F5F833002101911A6C114842F480228B
:105890001A641A6C02F480220192019A02911A6B26
:1058A00042F008021A631B6B03F008030293029B89
:1058B0004FF440730393022304930323069303A935
:1058C00007230793FAF7F8FE08B010BD0048004020
:1058D000000C024030B5014689B000221D20FAF7C5
:1058E000A9FE1D20FAF7DAFE0025154B02951A6C69
:1058F000144C42F002021A641B6C03F00203029380
:1059000001A903A8029BFCF785F9FCF763F90E4B8C
:10591000236040F2E733E36040000C4BB0FBF3F050
:105920000138606020462561A560FCF7C3FB20B903
:105930002046FCF7A2FA09B030BD0120FBE700BF0A
:1059400000380240F41D00200004004040420F00D7
:105950007047FEE7FEE7FEE7FEE770470148FCF709
:10596000A0BA00BFF41D00200148FCF79ABA00BF9E
:10597000041D00200148FBF781B800BF0C22002065
:1059800008B50A4B1968024609B90949196018682F
:10599000694602448A4206D900F0A4F90C23036048
:1059A0004FF0FF3008BD1A6008BD00BF541C002036
:1059B000D4240020054BD3F8882042F47002C3F8A9
:1059C00088204FF000629A60704700BF00ED00E051
:1059D00004290AD0052904D0022905D1044B1970E5
:1059E00070470322024B1A7070470122FAE700BF8A
:1059F000581C002008B501220B490C48FDF7C8FAD5
:105A000008B1FFF739FE0A490848FDF7F7FA08B16F
:105A1000FFF732FE0548FDF724FB18B1BDE808404A
:105A2000FFF72ABE08BD00BFD1590008341E002070
:105A30000800002030B5044689B01422002103A8D4
:105A400000F095F92368B3F1A04F35D11B4C1C48E9
:105A500000250195236B43F001032363236B03F0BF
:105A600001030193019B03A94FF400730393FAF719
:105A700023FE4FF4E05303930223049303A90A2364
:105A80000F48079305950695FAF716FE636B43F0EA
:105A9000800363630295636C43F480436364636CC7
:105AA00003F48043029343202A460521029BFAF720
:105AB000C1FD4320FAF7F2FD09B030BD00380240C5
:105AC00000000240D0F8C002FDF770BCD0F8C00260
:105AD000FDF782BCD0F8C002FDF79BBCD0F8C00235
